{
  "_format": "hh-sol-artifact-1",
  "contractName": "MyEpicNFT",
  "sourceName": "contracts/MyEpicNFT.sol",
  "abi": [
    {
      "inputs": [],
      "stateMutability": "nonpayable",
      "type": "constructor"
    },
    {
      "anonymous": false,
      "inputs": [
        {
          "indexed": true,
          "internalType": "address",
          "name": "owner",
          "type": "address"
        },
        {
          "indexed": true,
          "internalType": "address",
          "name": "approved",
          "type": "address"
        },
        {
          "indexed": true,
          "internalType": "uint256",
          "name": "tokenId",
          "type": "uint256"
        }
      ],
      "name": "Approval",
      "type": "event"
    },
    {
      "anonymous": false,
      "inputs": [
        {
          "indexed": true,
          "internalType": "address",
          "name": "owner",
          "type": "address"
        },
        {
          "indexed": true,
          "internalType": "address",
          "name": "operator",
          "type": "address"
        },
        {
          "indexed": false,
          "internalType": "bool",
          "name": "approved",
          "type": "bool"
        }
      ],
      "name": "ApprovalForAll",
      "type": "event"
    },
    {
      "anonymous": false,
      "inputs": [
        {
          "indexed": false,
          "internalType": "address",
          "name": "sender",
          "type": "address"
        },
        {
          "indexed": false,
          "internalType": "uint256",
          "name": "tokenId",
          "type": "uint256"
        }
      ],
      "name": "NewEpicNFTMinted",
      "type": "event"
    },
    {
      "anonymous": false,
      "inputs": [
        {
          "indexed": true,
          "internalType": "address",
          "name": "from",
          "type": "address"
        },
        {
          "indexed": true,
          "internalType": "address",
          "name": "to",
          "type": "address"
        },
        {
          "indexed": true,
          "internalType": "uint256",
          "name": "tokenId",
          "type": "uint256"
        }
      ],
      "name": "Transfer",
      "type": "event"
    },
    {
      "inputs": [
        {
          "internalType": "address",
          "name": "to",
          "type": "address"
        },
        {
          "internalType": "uint256",
          "name": "tokenId",
          "type": "uint256"
        }
      ],
      "name": "approve",
      "outputs": [],
      "stateMutability": "nonpayable",
      "type": "function"
    },
    {
      "inputs": [
        {
          "internalType": "address",
          "name": "owner",
          "type": "address"
        }
      ],
      "name": "balanceOf",
      "outputs": [
        {
          "internalType": "uint256",
          "name": "",
          "type": "uint256"
        }
      ],
      "stateMutability": "view",
      "type": "function"
    },
    {
      "inputs": [
        {
          "internalType": "uint256",
          "name": "tokenId",
          "type": "uint256"
        }
      ],
      "name": "getApproved",
      "outputs": [
        {
          "internalType": "address",
          "name": "",
          "type": "address"
        }
      ],
      "stateMutability": "view",
      "type": "function"
    },
    {
      "inputs": [],
      "name": "getTotalNFTsMintedSoFar",
      "outputs": [],
      "stateMutability": "nonpayable",
      "type": "function"
    },
    {
      "inputs": [
        {
          "internalType": "address",
          "name": "owner",
          "type": "address"
        },
        {
          "internalType": "address",
          "name": "operator",
          "type": "address"
        }
      ],
      "name": "isApprovedForAll",
      "outputs": [
        {
          "internalType": "bool",
          "name": "",
          "type": "bool"
        }
      ],
      "stateMutability": "view",
      "type": "function"
    },
    {
      "inputs": [],
      "name": "makeAnEpicNFT",
      "outputs": [],
      "stateMutability": "nonpayable",
      "type": "function"
    },
    {
      "inputs": [],
      "name": "name",
      "outputs": [
        {
          "internalType": "string",
          "name": "",
          "type": "string"
        }
      ],
      "stateMutability": "view",
      "type": "function"
    },
    {
      "inputs": [
        {
          "internalType": "uint256",
          "name": "tokenId",
          "type": "uint256"
        }
      ],
      "name": "ownerOf",
      "outputs": [
        {
          "internalType": "address",
          "name": "",
          "type": "address"
        }
      ],
      "stateMutability": "view",
      "type": "function"
    },
    {
      "inputs": [
        {
          "internalType": "uint256",
          "name": "tokenId",
          "type": "uint256"
        }
      ],
      "name": "pickRandomColor",
      "outputs": [
        {
          "internalType": "string",
          "name": "",
          "type": "string"
        }
      ],
      "stateMutability": "view",
      "type": "function"
    },
    {
      "inputs": [
        {
          "internalType": "uint256",
          "name": "tokenId",
          "type": "uint256"
        }
      ],
      "name": "pickRandomFirstWord",
      "outputs": [
        {
          "internalType": "string",
          "name": "",
          "type": "string"
        }
      ],
      "stateMutability": "view",
      "type": "function"
    },
    {
      "inputs": [
        {
          "internalType": "uint256",
          "name": "tokenId",
          "type": "uint256"
        }
      ],
      "name": "pickRandomSecondWord",
      "outputs": [
        {
          "internalType": "string",
          "name": "",
          "type": "string"
        }
      ],
      "stateMutability": "view",
      "type": "function"
    },
    {
      "inputs": [
        {
          "internalType": "uint256",
          "name": "tokenId",
          "type": "uint256"
        }
      ],
      "name": "pickRandomThirdWord",
      "outputs": [
        {
          "internalType": "string",
          "name": "",
          "type": "string"
        }
      ],
      "stateMutability": "view",
      "type": "function"
    },
    {
      "inputs": [
        {
          "internalType": "address",
          "name": "from",
          "type": "address"
        },
        {
          "internalType": "address",
          "name": "to",
          "type": "address"
        },
        {
          "internalType": "uint256",
          "name": "tokenId",
          "type": "uint256"
        }
      ],
      "name": "safeTransferFrom",
      "outputs": [],
      "stateMutability": "nonpayable",
      "type": "function"
    },
    {
      "inputs": [
        {
          "internalType": "address",
          "name": "from",
          "type": "address"
        },
        {
          "internalType": "address",
          "name": "to",
          "type": "address"
        },
        {
          "internalType": "uint256",
          "name": "tokenId",
          "type": "uint256"
        },
        {
          "internalType": "bytes",
          "name": "data",
          "type": "bytes"
        }
      ],
      "name": "safeTransferFrom",
      "outputs": [],
      "stateMutability": "nonpayable",
      "type": "function"
    },
    {
      "inputs": [
        {
          "internalType": "address",
          "name": "operator",
          "type": "address"
        },
        {
          "internalType": "bool",
          "name": "approved",
          "type": "bool"
        }
      ],
      "name": "setApprovalForAll",
      "outputs": [],
      "stateMutability": "nonpayable",
      "type": "function"
    },
    {
      "inputs": [
        {
          "internalType": "bytes4",
          "name": "interfaceId",
          "type": "bytes4"
        }
      ],
      "name": "supportsInterface",
      "outputs": [
        {
          "internalType": "bool",
          "name": "",
          "type": "bool"
        }
      ],
      "stateMutability": "view",
      "type": "function"
    },
    {
      "inputs": [],
      "name": "symbol",
      "outputs": [
        {
          "internalType": "string",
          "name": "",
          "type": "string"
        }
      ],
      "stateMutability": "view",
      "type": "function"
    },
    {
      "inputs": [
        {
          "internalType": "uint256",
          "name": "tokenId",
          "type": "uint256"
        }
      ],
      "name": "tokenURI",
      "outputs": [
        {
          "internalType": "string",
          "name": "",
          "type": "string"
        }
      ],
      "stateMutability": "view",
      "type": "function"
    },
    {
      "inputs": [
        {
          "internalType": "address",
          "name": "from",
          "type": "address"
        },
        {
          "internalType": "address",
          "name": "to",
          "type": "address"
        },
        {
          "internalType": "uint256",
          "name": "tokenId",
          "type": "uint256"
        }
      ],
      "name": "transferFrom",
      "outputs": [],
      "stateMutability": "nonpayable",
      "type": "function"
    }
  ],
  "bytecode": "0x608060405260405180610100016040528060d381526020016200479a60d39139600890805190602001906200003692919062000af3565b506040518060800160405280605681526020016200486d60569139600990805190602001906200006892919062000af3565b506040518061014001604052806040518060400160405280600c81526020017f426c61697257616c646f7266000000000000000000000000000000000000000081525081526020016040518060400160405280600b81526020017f53686172756b684b68616e00000000000000000000000000000000000000000081525081526020016040518060400160405280600f81526020017f547972696f6e4c616e6e6973746572000000000000000000000000000000000081525081526020016040518060400160405280600f81526020017f4365726369654c616e6e6973746572000000000000000000000000000000000081525081526020016040518060400160405280600581526020017f5061656e6700000000000000000000000000000000000000000000000000000081525081526020016040518060400160405280601181526020017f4b617265656e614b61706f6f724b68616e00000000000000000000000000000081525081526020016040518060400160405280600881526020017f446f7265616d6f6e00000000000000000000000000000000000000000000000081525081526020016040518060400160405280600b81526020017f42656e54656e6e69736f6e00000000000000000000000000000000000000000081525081526020016040518060400160405280600681526020017f426172626965000000000000000000000000000000000000000000000000000081525081526020016040518060400160405280600d81526020017f426f625468654275696c64657200000000000000000000000000000000000000815250815250600a90600a620002d392919062000b84565b506040518061014001604052806040518060400160405280600581526020017f50697a7a6100000000000000000000000000000000000000000000000000000081525081526020016040518060400160405280600681526020017f427572676572000000000000000000000000000000000000000000000000000081525081526020016040518060400160405280600581526020017f506173746100000000000000000000000000000000000000000000000000000081525081526020016040518060400160405280600581526020017f5461636f7300000000000000000000000000000000000000000000000000000081525081526020016040518060400160405280600381526020017f424251000000000000000000000000000000000000000000000000000000000081525081526020016040518060400160405280600781526020017f4368696e6573650000000000000000000000000000000000000000000000000081525081526020016040518060400160405280600481526020017f546861690000000000000000000000000000000000000000000000000000000081525081526020016040518060400160405280600981526020017f446f726143616b6573000000000000000000000000000000000000000000000081525081526020016040518060400160405280600681526020017f5368616b6573000000000000000000000000000000000000000000000000000081525081526020016040518060400160405280600681526020017f5375736869730000000000000000000000000000000000000000000000000000815250815250600b90600a6200053e92919062000b84565b506040518061014001604052806040518060400160405280600981526020017f46616e746173746963000000000000000000000000000000000000000000000081525081526020016040518060400160405280600481526020017f457069630000000000000000000000000000000000000000000000000000000081525081526020016040518060400160405280600881526020017f476f7267656f757300000000000000000000000000000000000000000000000081525081526020016040518060400160405280600481526020017f437574650000000000000000000000000000000000000000000000000000000081525081526020016040518060400160405280600481526020017f57696c640000000000000000000000000000000000000000000000000000000081525081526020016040518060400160405280600681526020017f53706f6f6b79000000000000000000000000000000000000000000000000000081525081526020016040518060400160405280600881526020017f5465727269626c6500000000000000000000000000000000000000000000000081525081526020016040518060400160405280600581526020017f4372617a7900000000000000000000000000000000000000000000000000000081525081526020016040518060400160405280600a81526020017f486f7272696679696e670000000000000000000000000000000000000000000081525081526020016040518060400160405280600881526020017f526f6d616e746963000000000000000000000000000000000000000000000000815250815250600c90600a620007a992919062000b84565b506040518060c001604052806040518060400160405280600381526020017f726564000000000000000000000000000000000000000000000000000000000081525081526020016040518060400160405280600781526020017f233038433241380000000000000000000000000000000000000000000000000081525081526020016040518060400160405280600581526020017f626c61636b00000000000000000000000000000000000000000000000000000081525081526020016040518060400160405280600681526020017f79656c6c6f77000000000000000000000000000000000000000000000000000081525081526020016040518060400160405280600481526020017f626c75650000000000000000000000000000000000000000000000000000000081525081526020016040518060400160405280600581526020017f677265656e000000000000000000000000000000000000000000000000000000815250815250600d9060066200092792919062000beb565b503480156200093557600080fd5b506040518060400160405280600981526020017f5371756172654e465400000000000000000000000000000000000000000000008152506040518060400160405280600681526020017f53515541524500000000000000000000000000000000000000000000000000008152508160009080519060200190620009ba92919062000af3565b508060019080519060200190620009d392919062000af3565b50505062000a216040518060400160405280601e81526020017f54686973206973206d79204e465420636f6e74726163742e20576f616821000081525062000a2760201b620012171760201c565b62000e0c565b62000ac78160405160240162000a3e919062000d20565b6040516020818303038152906040527f41304fac000000000000000000000000000000000000000000000000000000007bffffffffffffffffffffffffffffffffffffffffffffffffffffffff19166020820180517bffffffffffffffffffffffffffffffffffffffffffffffffffffffff838183161783525050505062000aca60201b60201c565b50565b60008151905060006a636f6e736f6c652e6c6f679050602083016000808483855afa5050505050565b82805462000b019062000d96565b90600052602060002090601f01602090048101928262000b25576000855562000b71565b82601f1062000b4057805160ff191683800117855562000b71565b8280016001018555821562000b71579182015b8281111562000b7057825182559160200191906001019062000b53565b5b50905062000b80919062000c52565b5090565b82805482825590600052602060002090810192821562000bd8579160200282015b8281111562000bd757825182908051906020019062000bc692919062000af3565b509160200191906001019062000ba5565b5b50905062000be7919062000c71565b5090565b82805482825590600052602060002090810192821562000c3f579160200282015b8281111562000c3e57825182908051906020019062000c2d92919062000af3565b509160200191906001019062000c0c565b5b50905062000c4e919062000c71565b5090565b5b8082111562000c6d57600081600090555060010162000c53565b5090565b5b8082111562000c95576000818162000c8b919062000c99565b5060010162000c72565b5090565b50805462000ca79062000d96565b6000825580601f1062000cbb575062000cdc565b601f01602090049060005260206000209081019062000cdb919062000c52565b5b50565b600062000cec8262000d44565b62000cf8818562000d4f565b935062000d0a81856020860162000d60565b62000d158162000dfb565b840191505092915050565b6000602082019050818103600083015262000d3c818462000cdf565b905092915050565b600081519050919050565b600082825260208201905092915050565b60005b8381101562000d8057808201518184015260208101905062000d63565b8381111562000d90576000848401525b50505050565b6000600282049050600182168062000daf57607f821691505b6020821081141562000dc65762000dc562000dcc565b5b50919050565b7f4e487b7100000000000000000000000000000000000000000000000000000000600052602260045260246000fd5b6000601f19601f8301169050919050565b61397e8062000e1c6000396000f3fe608060405234801561001057600080fd5b50600436106101215760003560e01c80636352211e116100ad578063b88d4fde11610071578063b88d4fde1461032c578063c575757a14610348578063c87b56dd14610378578063de9d132f146103a8578063e985e9c5146103b257610121565b80636352211e1461026257806370a082311461029257806395d89b41146102c2578063a22cb465146102e0578063b187301f146102fc57610121565b8063095ea7b3116100f4578063095ea7b3146101ae57806323b872dd146101ca5780632de38d68146101e657806342842e0e14610216578063514dc8c61461023257610121565b806301ffc9a714610126578063060475901461015657806306fdde0314610160578063081812fc1461017e575b600080fd5b610140600480360381019061013b9190612606565b6103e2565b60405161014d9190612d06565b60405180910390f35b61015e6104c4565b005b610168610512565b6040516101759190612d21565b60405180910390f35b61019860048036038101906101939190612658565b6105a4565b6040516101a59190612c76565b60405180910390f35b6101c860048036038101906101c391906125ca565b6105ea565b005b6101e460048036038101906101df91906124c4565b610702565b005b61020060048036038101906101fb9190612658565b610762565b60405161020d9190612d21565b60405180910390f35b610230600480360381019061022b91906124c4565b610880565b005b61024c60048036038101906102479190612658565b6108a0565b6040516102599190612d21565b60405180910390f35b61027c60048036038101906102779190612658565b6109be565b6040516102899190612c76565b60405180910390f35b6102ac60048036038101906102a7919061245f565b610a70565b6040516102b99190612f21565b60405180910390f35b6102ca610b28565b6040516102d79190612d21565b60405180910390f35b6102fa60048036038101906102f5919061258e565b610bba565b005b61031660048036038101906103119190612658565b610bd0565b6040516103239190612d21565b60405180910390f35b61034660048036038101906103419190612513565b610cee565b005b610362600480360381019061035d9190612658565b610d50565b60405161036f9190612d21565b60405180910390f35b610392600480360381019061038d9190612658565b610e6e565b60405161039f9190612d21565b60405180910390f35b6103b0610f81565b005b6103cc60048036038101906103c79190612488565b611183565b6040516103d99190612d06565b60405180910390f35b60007f80ac58cd000000000000000000000000000000000000000000000000000000007bffffffffffffffffffffffffffffffffffffffffffffffffffffffff1916827bffffffffffffffffffffffffffffffffffffffffffffffffffffffff191614806104ad57507f5b5e139f000000000000000000000000000000000000000000000000000000007bffffffffffffffffffffffffffffffffffffffffffffffffffffffff1916827bffffffffffffffffffffffffffffffffffffffffffffffffffffffff1916145b806104bd57506104bc826112b0565b5b9050919050565b60326104d0600761131a565b10610510576040517f08c379a000000000000000000000000000000000000000000000000000000000815260040161050790612ee1565b60405180910390fd5b565b606060008054610521906131b5565b80601f016020809104026020016040519081016040528092919081815260200182805461054d906131b5565b801561059a5780601f1061056f5761010080835404028352916020019161059a565b820191906000526020600020905b81548152906001019060200180831161057d57829003601f168201915b5050505050905090565b60006105af82611328565b6004600083815260200190815260200160002060009054906101000a900473ffffffffffffffffffffffffffffffffffffffff169050919050565b60006105f5826109be565b90508073ffffffffffffffffffffffffffffffffffffffff168373ffffffffffffffffffffffffffffffffffffffff161415610666576040517f08c379a000000000000000000000000000000000000000000000000000000000815260040161065d90612ec1565b60405180910390fd5b8073ffffffffffffffffffffffffffffffffffffffff16610685611373565b73ffffffffffffffffffffffffffffffffffffffff1614806106b457506106b3816106ae611373565b611183565b5b6106f3576040517f08c379a00000000000000000000000000000000000000000000000000000000081526004016106ea90612e61565b60405180910390fd5b6106fd838361137b565b505050565b61071361070d611373565b82611434565b610752576040517f08c379a000000000000000000000000000000000000000000000000000000000815260040161074990612f01565b60405180910390fd5b61075d8383836114c9565b505050565b6060600061079661077284611730565b6040516020016107829190612c10565b6040516020818303038152906040526118dd565b9050600a80549050816107a99190613261565b9050600a81815481106107e5577f4e487b7100000000000000000000000000000000000000000000000000000000600052603260045260246000fd5b9060005260206000200180546107fa906131b5565b80601f0160208091040260200160405190810160405280929190818152602001828054610826906131b5565b80156108735780601f1061084857610100808354040283529160200191610873565b820191906000526020600020905b81548152906001019060200180831161085657829003601f168201915b5050505050915050919050565b61089b83838360405180602001604052806000815250610cee565b505050565b606060006108d46108b084611730565b6040516020016108c09190612c54565b6040516020818303038152906040526118dd565b9050600d80549050816108e79190613261565b9050600d8181548110610923577f4e487b7100000000000000000000000000000000000000000000000000000000600052603260045260246000fd5b906000526020600020018054610938906131b5565b80601f0160208091040260200160405190810160405280929190818152602001828054610964906131b5565b80156109b15780601f10610986576101008083540402835291602001916109b1565b820191906000526020600020905b81548152906001019060200180831161099457829003601f168201915b5050505050915050919050565b6000806002600084815260200190815260200160002060009054906101000a900473ffffffffffffffffffffffffffffffffffffffff169050600073ffffffffffffffffffffffffffffffffffffffff168173ffffffffffffffffffffffffffffffffffffffff161415610a67576040517f08c379a0000000000000000000000000000000000000000000000000000000008152600401610a5e90612ea1565b60405180910390fd5b80915050919050565b60008073ffffffffffffffffffffffffffffffffffffffff168273ffffffffffffffffffffffffffffffffffffffff161415610ae1576040517f08c379a0000000000000000000000000000000000000000000000000000000008152600401610ad890612e21565b60405180910390fd5b600360008373ffffffffffffffffffffffffffffffffffffffff1673ffffffffffffffffffffffffffffffffffffffff168152602001908152602001600020549050919050565b606060018054610b37906131b5565b80601f0160208091040260200160405190810160405280929190818152602001828054610b63906131b5565b8015610bb05780601f10610b8557610100808354040283529160200191610bb0565b820191906000526020600020905b815481529060010190602001808311610b9357829003601f168201915b5050505050905090565b610bcc610bc5611373565b8383611910565b5050565b60606000610c04610be084611730565b604051602001610bf09190612ba9565b6040516020818303038152906040526118dd565b9050600b8054905081610c179190613261565b9050600b8181548110610c53577f4e487b7100000000000000000000000000000000000000000000000000000000600052603260045260246000fd5b906000526020600020018054610c68906131b5565b80601f0160208091040260200160405190810160405280929190818152602001828054610c94906131b5565b8015610ce15780601f10610cb657610100808354040283529160200191610ce1565b820191906000526020600020905b815481529060010190602001808311610cc457829003601f168201915b5050505050915050919050565b610cff610cf9611373565b83611434565b610d3e576040517f08c379a0000000000000000000000000000000000000000000000000000000008152600401610d3590612f01565b60405180910390fd5b610d4a84848484611a7d565b50505050565b60606000610d84610d6084611730565b604051602001610d709190612b87565b6040516020818303038152906040526118dd565b9050600c8054905081610d979190613261565b9050600c8181548110610dd3577f4e487b7100000000000000000000000000000000000000000000000000000000600052603260045260246000fd5b906000526020600020018054610de8906131b5565b80601f0160208091040260200160405190810160405280929190818152602001828054610e14906131b5565b8015610e615780601f10610e3657610100808354040283529160200191610e61565b820191906000526020600020905b815481529060010190602001808311610e4457829003601f168201915b5050505050915050919050565b6060610e7982611328565b6000600660008481526020019081526020016000208054610e99906131b5565b80601f0160208091040260200160405190810160405280929190818152602001828054610ec5906131b5565b8015610f125780601f10610ee757610100808354040283529160200191610f12565b820191906000526020600020905b815481529060010190602001808311610ef557829003601f168201915b505050505090506000610f23611ad9565b9050600081511415610f39578192505050610f7c565b600082511115610f6e578082604051602001610f56929190612ae9565b60405160208183030381529060405292505050610f7c565b610f7784611af0565b925050505b919050565b6000610f8d600761131a565b9050610f976104c4565b6000610fa282610762565b90506000610faf83610bd0565b90506000610fbc84610d50565b90506000838383604051602001610fd593929190612b0d565b60405160208183030381529060405290506000610ff1866108a0565b9050600060088260098560405160200161100e9493929190612b3e565b604051602081830303815290604052905060006110538461102e84611b58565b60405160200161103f929190612bcb565b604051602081830303815290604052611b58565b90506000816040516020016110689190612c32565b60405160208183030381529060405290506110b76040518060400160405280601581526020017f0a2d2d2d2d2d2d2d2d2d2d2d2d2d2d2d2d2d2d2d2d0000000000000000000000815250611217565b6110c081611217565b6110fe6040518060400160405280601581526020017f2d2d2d2d2d2d2d2d2d2d2d2d2d2d2d2d2d2d2d2d0a0000000000000000000000815250611217565b611108338a611d16565b6111128982611d34565b61111c6007611da8565b61113f6040518060600160405280602581526020016138e4602591398a33611dbe565b7febb98688741ffa4c7589bf325de30cf7becb63de567842e1ccdb6cb949fdc82c338a604051611170929190612cdd565b60405180910390a1505050505050505050565b6000600560008473ffffffffffffffffffffffffffffffffffffffff1673ffffffffffffffffffffffffffffffffffffffff16815260200190815260200160002060008373ffffffffffffffffffffffffffffffffffffffff1673ffffffffffffffffffffffffffffffffffffffff16815260200190815260200160002060009054906101000a900460ff16905092915050565b6112ad8160405160240161122b9190612d21565b6040516020818303038152906040527f41304fac000000000000000000000000000000000000000000000000000000007bffffffffffffffffffffffffffffffffffffffffffffffffffffffff19166020820180517bffffffffffffffffffffffffffffffffffffffffffffffffffffffff8381831617835250505050611e5d565b50565b60007f01ffc9a7000000000000000000000000000000000000000000000000000000007bffffffffffffffffffffffffffffffffffffffffffffffffffffffff1916827bffffffffffffffffffffffffffffffffffffffffffffffffffffffff1916149050919050565b600081600001549050919050565b61133181611e86565b611370576040517f08c379a000000000000000000000000000000000000000000000000000000000815260040161136790612ea1565b60405180910390fd5b50565b600033905090565b816004600083815260200190815260200160002060006101000a81548173ffffffffffffffffffffffffffffffffffffffff021916908373ffffffffffffffffffffffffffffffffffffffff160217905550808273ffffffffffffffffffffffffffffffffffffffff166113ee836109be565b73ffffffffffffffffffffffffffffffffffffffff167f8c5be1e5ebec7d5bd14f71427d1e84f3dd0314c0f7b2291e5b200ac8c7c3b92560405160405180910390a45050565b600080611440836109be565b90508073ffffffffffffffffffffffffffffffffffffffff168473ffffffffffffffffffffffffffffffffffffffff16148061148257506114818185611183565b5b806114c057508373ffffffffffffffffffffffffffffffffffffffff166114a8846105a4565b73ffffffffffffffffffffffffffffffffffffffff16145b91505092915050565b8273ffffffffffffffffffffffffffffffffffffffff166114e9826109be565b73ffffffffffffffffffffffffffffffffffffffff161461153f576040517f08c379a000000000000000000000000000000000000000000000000000000000815260040161153690612da1565b60405180910390fd5b600073ffffffffffffffffffffffffffffffffffffffff168273ffffffffffffffffffffffffffffffffffffffff1614156115af576040517f08c379a00000000000000000000000000000000000000000000000000000000081526004016115a690612de1565b60405180910390fd5b6115ba838383611ef2565b6115c560008261137b565b6001600360008573ffffffffffffffffffffffffffffffffffffffff1673ffffffffffffffffffffffffffffffffffffffff168152602001908152602001600020600082825461161591906130cb565b925050819055506001600360008473ffffffffffffffffffffffffffffffffffffffff1673ffffffffffffffffffffffffffffffffffffffff168152602001908152602001600020600082825461166c9190612fea565b92505081905550816002600083815260200190815260200160002060006101000a81548173ffffffffffffffffffffffffffffffffffffffff021916908373ffffffffffffffffffffffffffffffffffffffff160217905550808273ffffffffffffffffffffffffffffffffffffffff168473ffffffffffffffffffffffffffffffffffffffff167fddf252ad1be2c89b69c2b068fc378daa952ba7f163c4a11628f55a4df523b3ef60405160405180910390a461172b838383611ef7565b505050565b60606000821415611778576040518060400160405280600181526020017f300000000000000000000000000000000000000000000000000000000000000081525090506118d8565b600082905060005b600082146117aa57808061179390613218565b915050600a826117a39190613040565b9150611780565b60008167ffffffffffffffff8111156117ec577f4e487b7100000000000000000000000000000000000000000000000000000000600052604160045260246000fd5b6040519080825280601f01601f19166020018201604052801561181e5781602001600182028036833780820191505090505b5090505b600085146118d15760018261183791906130cb565b9150600a856118469190613261565b60306118529190612fea565b60f81b81838151811061188e577f4e487b7100000000000000000000000000000000000000000000000000000000600052603260045260246000fd5b60200101907effffffffffffffffffffffffffffffffffffffffffffffffffffffffffffff1916908160001a905350600a856118ca9190613040565b9450611822565b8093505050505b919050565b6000816040516020016118f09190612ad2565b6040516020818303038152906040528051906020012060001c9050919050565b8173ffffffffffffffffffffffffffffffffffffffff168373ffffffffffffffffffffffffffffffffffffffff16141561197f576040517f08c379a000000000000000000000000000000000000000000000000000000000815260040161197690612e01565b60405180910390fd5b80600560008573ffffffffffffffffffffffffffffffffffffffff1673ffffffffffffffffffffffffffffffffffffffff16815260200190815260200160002060008473ffffffffffffffffffffffffffffffffffffffff1673ffffffffffffffffffffffffffffffffffffffff16815260200190815260200160002060006101000a81548160ff0219169083151502179055508173ffffffffffffffffffffffffffffffffffffffff168373ffffffffffffffffffffffffffffffffffffffff167f17307eab39ab6107e8899845ad3d59bd9653f200f220920489ca2b5937696c3183604051611a709190612d06565b60405180910390a3505050565b611a888484846114c9565b611a9484848484611efc565b611ad3576040517f08c379a0000000000000000000000000000000000000000000000000000000008152600401611aca90612d81565b60405180910390fd5b50505050565b606060405180602001604052806000815250905090565b6060611afb82611328565b6000611b05611ad9565b90506000815111611b255760405180602001604052806000815250611b50565b80611b2f84611730565b604051602001611b40929190612ae9565b6040516020818303038152906040525b915050919050565b60606000825190506000811415611b815760405180602001604052806000815250915050611d11565b60006003600283611b929190612fea565b611b9c9190613040565b6004611ba89190613071565b90506000602082611bb99190612fea565b67ffffffffffffffff811115611bf8577f4e487b7100000000000000000000000000000000000000000000000000000000600052604160045260246000fd5b6040519080825280601f01601f191660200182016040528015611c2a5781602001600182028036833780820191505090505b5090506000604051806060016040528060408152602001613909604091399050600181016020830160005b86811015611cce5760038101905062ffffff818a015116603f8160121c168401518060081b905060ff603f83600c1c1686015116810190508060081b905060ff603f8360061c1686015116810190508060081b905060ff603f831686015116810190508060e01b90508084526004840193505050611c55565b506003860660018114611ce85760028114611cf857611d03565b613d3d60f01b6002830352611d03565b603d60f81b60018303525b508484525050819450505050505b919050565b611d30828260405180602001604052806000815250612093565b5050565b611d3d82611e86565b611d7c576040517f08c379a0000000000000000000000000000000000000000000000000000000008152600401611d7390612e41565b60405180910390fd5b80600660008481526020019081526020016000209080519060200190611da39291906122eb565b505050565b6001816000016000828254019250508190555050565b611e58838383604051602401611dd693929190612d43565b6040516020818303038152906040527fe3849f79000000000000000000000000000000000000000000000000000000007bffffffffffffffffffffffffffffffffffffffffffffffffffffffff19166020820180517bffffffffffffffffffffffffffffffffffffffffffffffffffffffff8381831617835250505050611e5d565b505050565b60008151905060006a636f6e736f6c652e6c6f679050602083016000808483855afa5050505050565b60008073ffffffffffffffffffffffffffffffffffffffff166002600084815260200190815260200160002060009054906101000a900473ffffffffffffffffffffffffffffffffffffffff1673ffffffffffffffffffffffffffffffffffffffff1614159050919050565b505050565b505050565b6000611f1d8473ffffffffffffffffffffffffffffffffffffffff166120ee565b15612086578373ffffffffffffffffffffffffffffffffffffffff1663150b7a02611f46611373565b8786866040518563ffffffff1660e01b8152600401611f689493929190612c91565b602060405180830381600087803b158015611f8257600080fd5b505af1925050508015611fb357506040513d601f19601f82011682018060405250810190611fb0919061262f565b60015b612036573d8060008114611fe3576040519150601f19603f3d011682016040523d82523d6000602084013e611fe8565b606091505b5060008151141561202e576040517f08c379a000000000000000000000000000000000000000000000000000000000815260040161202590612d81565b60405180910390fd5b805181602001fd5b63150b7a0260e01b7bffffffffffffffffffffffffffffffffffffffffffffffffffffffff1916817bffffffffffffffffffffffffffffffffffffffffffffffffffffffff19161491505061208b565b600190505b949350505050565b61209d8383612111565b6120aa6000848484611efc565b6120e9576040517f08c379a00000000000000000000000000000000000000000000000000000000081526004016120e090612d81565b60405180910390fd5b505050565b6000808273ffffffffffffffffffffffffffffffffffffffff163b119050919050565b600073ffffffffffffffffffffffffffffffffffffffff168273ffffffffffffffffffffffffffffffffffffffff161415612181576040517f08c379a000000000000000000000000000000000000000000000000000000000815260040161217890612e81565b60405180910390fd5b61218a81611e86565b156121ca576040517f08c379a00000000000000000000000000000000000000000000000000000000081526004016121c190612dc1565b60405180910390fd5b6121d660008383611ef2565b6001600360008473ffffffffffffffffffffffffffffffffffffffff1673ffffffffffffffffffffffffffffffffffffffff16815260200190815260200160002060008282546122269190612fea565b92505081905550816002600083815260200190815260200160002060006101000a81548173ffffffffffffffffffffffffffffffffffffffff021916908373ffffffffffffffffffffffffffffffffffffffff160217905550808273ffffffffffffffffffffffffffffffffffffffff16600073ffffffffffffffffffffffffffffffffffffffff167fddf252ad1be2c89b69c2b068fc378daa952ba7f163c4a11628f55a4df523b3ef60405160405180910390a46122e760008383611ef7565b5050565b8280546122f7906131b5565b90600052602060002090601f0160209004810192826123195760008555612360565b82601f1061233257805160ff1916838001178555612360565b82800160010185558215612360579182015b8281111561235f578251825591602001919060010190612344565b5b50905061236d9190612371565b5090565b5b8082111561238a576000816000905550600101612372565b5090565b60006123a161239c84612f61565b612f3c565b9050828152602081018484840111156123b957600080fd5b6123c4848285613173565b509392505050565b6000813590506123db81613887565b92915050565b6000813590506123f08161389e565b92915050565b600081359050612405816138b5565b92915050565b60008151905061241a816138b5565b92915050565b600082601f83011261243157600080fd5b813561244184826020860161238e565b91505092915050565b600081359050612459816138cc565b92915050565b60006020828403121561247157600080fd5b600061247f848285016123cc565b91505092915050565b6000806040838503121561249b57600080fd5b60006124a9858286016123cc565b92505060206124ba858286016123cc565b9150509250929050565b6000806000606084860312156124d957600080fd5b60006124e7868287016123cc565b93505060206124f8868287016123cc565b92505060406125098682870161244a565b9150509250925092565b6000806000806080858703121561252957600080fd5b6000612537878288016123cc565b9450506020612548878288016123cc565b93505060406125598782880161244a565b925050606085013567ffffffffffffffff81111561257657600080fd5b61258287828801612420565b91505092959194509250565b600080604083850312156125a157600080fd5b60006125af858286016123cc565b92505060206125c0858286016123e1565b9150509250929050565b600080604083850312156125dd57600080fd5b60006125eb858286016123cc565b92505060206125fc8582860161244a565b9150509250929050565b60006020828403121561261857600080fd5b6000612626848285016123f6565b91505092915050565b60006020828403121561264157600080fd5b600061264f8482850161240b565b91505092915050565b60006020828403121561266a57600080fd5b60006126788482850161244a565b91505092915050565b61268a816130ff565b82525050565b61269981613111565b82525050565b60006126aa82612fa7565b6126b48185612fbd565b93506126c4818560208601613182565b6126cd8161334e565b840191505092915050565b60006126e382612fb2565b6126ed8185612fce565b93506126fd818560208601613182565b6127068161334e565b840191505092915050565b600061271c82612fb2565b6127268185612fdf565b9350612736818560208601613182565b80840191505092915050565b6000815461274f816131b5565b6127598186612fdf565b945060018216600081146127745760018114612785576127b8565b60ff198316865281860193506127b8565b61278e85612f92565b60005b838110156127b057815481890152600182019150602081019050612791565b838801955050505b50505092915050565b60006127ce603283612fce565b91506127d98261335f565b604082019050919050565b60006127f1602583612fce565b91506127fc826133ae565b604082019050919050565b6000612814601c83612fce565b915061281f826133fd565b602082019050919050565b6000612837600a83612fdf565b915061284282613426565b600a82019050919050565b600061285a602483612fce565b91506128658261344f565b604082019050919050565b600061287d601983612fce565b91506128888261349e565b602082019050919050565b60006128a0606383612fdf565b91506128ab826134c7565b606382019050919050565b60006128c3600b83612fdf565b91506128ce82613562565b600b82019050919050565b60006128e6600d83612fdf565b91506128f18261358b565b600d82019050919050565b6000612909602983612fce565b9150612914826135b4565b604082019050919050565b600061292c602e83612fce565b915061293782613603565b604082019050919050565b600061294f600283612fdf565b915061295a82613652565b600282019050919050565b6000612972603e83612fce565b915061297d8261367b565b604082019050919050565b6000612995602083612fce565b91506129a0826136ca565b602082019050919050565b60006129b8600a83612fdf565b91506129c3826136f3565b600a82019050919050565b60006129db601883612fce565b91506129e68261371c565b602082019050919050565b60006129fe602183612fce565b9150612a0982613745565b604082019050919050565b6000612a21600a83612fdf565b9150612a2c82613794565b600a82019050919050565b6000612a44601d83612fdf565b9150612a4f826137bd565b601d82019050919050565b6000612a67601583612fce565b9150612a72826137e6565b602082019050919050565b6000612a8a600583612fdf565b9150612a958261380f565b600582019050919050565b6000612aad602e83612fce565b9150612ab882613838565b604082019050919050565b612acc81613169565b82525050565b6000612ade8284612711565b915081905092915050565b6000612af58285612711565b9150612b018284612711565b91508190509392505050565b6000612b198286612711565b9150612b258285612711565b9150612b318284612711565b9150819050949350505050565b6000612b4a8287612742565b9150612b568286612711565b9150612b628285612742565b9150612b6e8284612711565b9150612b79826128d9565b915081905095945050505050565b6000612b928261282a565b9150612b9e8284612711565b915081905092915050565b6000612bb4826128b6565b9150612bc08284612711565b915081905092915050565b6000612bd6826129ab565b9150612be28285612711565b9150612bed82612893565b9150612bf98284612711565b9150612c0482612942565b91508190509392505050565b6000612c1b82612a14565b9150612c278284612711565b915081905092915050565b6000612c3d82612a37565b9150612c498284612711565b915081905092915050565b6000612c5f82612a7d565b9150612c6b8284612711565b915081905092915050565b6000602082019050612c8b6000830184612681565b92915050565b6000608082019050612ca66000830187612681565b612cb36020830186612681565b612cc06040830185612ac3565b8181036060830152612cd2818461269f565b905095945050505050565b6000604082019050612cf26000830185612681565b612cff6020830184612ac3565b9392505050565b6000602082019050612d1b6000830184612690565b92915050565b60006020820190508181036000830152612d3b81846126d8565b905092915050565b60006060820190508181036000830152612d5d81866126d8565b9050612d6c6020830185612ac3565b612d796040830184612681565b949350505050565b60006020820190508181036000830152612d9a816127c1565b9050919050565b60006020820190508181036000830152612dba816127e4565b9050919050565b60006020820190508181036000830152612dda81612807565b9050919050565b60006020820190508181036000830152612dfa8161284d565b9050919050565b60006020820190508181036000830152612e1a81612870565b9050919050565b60006020820190508181036000830152612e3a816128fc565b9050919050565b60006020820190508181036000830152612e5a8161291f565b9050919050565b60006020820190508181036000830152612e7a81612965565b9050919050565b60006020820190508181036000830152612e9a81612988565b9050919050565b60006020820190508181036000830152612eba816129ce565b9050919050565b60006020820190508181036000830152612eda816129f1565b9050919050565b60006020820190508181036000830152612efa81612a5a565b9050919050565b60006020820190508181036000830152612f1a81612aa0565b9050919050565b6000602082019050612f366000830184612ac3565b92915050565b6000612f46612f57565b9050612f5282826131e7565b919050565b6000604051905090565b600067ffffffffffffffff821115612f7c57612f7b61331f565b5b612f858261334e565b9050602081019050919050565b60008190508160005260206000209050919050565b600081519050919050565b600081519050919050565b600082825260208201905092915050565b600082825260208201905092915050565b600081905092915050565b6000612ff582613169565b915061300083613169565b9250827fffffffffffffffffffffffffffffffffffffffffffffffffffffffffffffffff0382111561303557613034613292565b5b828201905092915050565b600061304b82613169565b915061305683613169565b925082613066576130656132c1565b5b828204905092915050565b600061307c82613169565b915061308783613169565b9250817fffffffffffffffffffffffffffffffffffffffffffffffffffffffffffffffff04831182151516156130c0576130bf613292565b5b828202905092915050565b60006130d682613169565b91506130e183613169565b9250828210156130f4576130f3613292565b5b828203905092915050565b600061310a82613149565b9050919050565b60008115159050919050565b60007fffffffff0000000000000000000000000000000000000000000000000000000082169050919050565b600073ffffffffffffffffffffffffffffffffffffffff82169050919050565b6000819050919050565b82818337600083830152505050565b60005b838110156131a0578082015181840152602081019050613185565b838111156131af576000848401525b50505050565b600060028204905060018216806131cd57607f821691505b602082108114156131e1576131e06132f0565b5b50919050565b6131f08261334e565b810181811067ffffffffffffffff8211171561320f5761320e61331f565b5b80604052505050565b600061322382613169565b91507fffffffffffffffffffffffffffffffffffffffffffffffffffffffffffffffff82141561325657613255613292565b5b600182019050919050565b600061326c82613169565b915061327783613169565b925082613287576132866132c1565b5b828206905092915050565b7f4e487b7100000000000000000000000000000000000000000000000000000000600052601160045260246000fd5b7f4e487b7100000000000000000000000000000000000000000000000000000000600052601260045260246000fd5b7f4e487b7100000000000000000000000000000000000000000000000000000000600052602260045260246000fd5b7f4e487b7100000000000000000000000000000000000000000000000000000000600052604160045260246000fd5b6000601f19601f8301169050919050565b7f4552433732313a207472616e7366657220746f206e6f6e20455243373231526560008201527f63656976657220696d706c656d656e7465720000000000000000000000000000602082015250565b7f4552433732313a207472616e736665722066726f6d20696e636f72726563742060008201527f6f776e6572000000000000000000000000000000000000000000000000000000602082015250565b7f4552433732313a20746f6b656e20616c7265616479206d696e74656400000000600082015250565b7f54484952445f574f524400000000000000000000000000000000000000000000600082015250565b7f4552433732313a207472616e7366657220746f20746865207a65726f2061646460008201527f7265737300000000000000000000000000000000000000000000000000000000602082015250565b7f4552433732313a20617070726f766520746f2063616c6c657200000000000000600082015250565b7f222c20226465736372697074696f6e223a20224120686967686c79206163636c60008201527f61696d656420636f6c6c656374696f6e206f6620737175617265732e222c202260208201527f696d616765223a2022646174613a696d6167652f7376672b786d6c3b6261736560408201527f36342c0000000000000000000000000000000000000000000000000000000000606082015250565b7f5345434f4e445f574f5244000000000000000000000000000000000000000000600082015250565b7f3c2f746578743e3c2f7376673e00000000000000000000000000000000000000600082015250565b7f4552433732313a2061646472657373207a65726f206973206e6f74206120766160008201527f6c6964206f776e65720000000000000000000000000000000000000000000000602082015250565b7f45524337323155524953746f726167653a2055524920736574206f66206e6f6e60008201527f6578697374656e7420746f6b656e000000000000000000000000000000000000602082015250565b7f227d000000000000000000000000000000000000000000000000000000000000600082015250565b7f4552433732313a20617070726f76652063616c6c6572206973206e6f7420746f60008201527f6b656e206f776e6572206e6f7220617070726f76656420666f7220616c6c0000602082015250565b7f4552433732313a206d696e7420746f20746865207a65726f2061646472657373600082015250565b7f7b226e616d65223a202200000000000000000000000000000000000000000000600082015250565b7f4552433732313a20696e76616c696420746f6b656e2049440000000000000000600082015250565b7f4552433732313a20617070726f76616c20746f2063757272656e74206f776e6560008201527f7200000000000000000000000000000000000000000000000000000000000000602082015250565b7f46495253545f574f524400000000000000000000000000000000000000000000600082015250565b7f646174613a6170706c69636174696f6e2f6a736f6e3b6261736536342c000000600082015250565b7f4e465473206c696d697420697320726561636865640000000000000000000000600082015250565b7f434f4c4f52000000000000000000000000000000000000000000000000000000600082015250565b7f4552433732313a2063616c6c6572206973206e6f7420746f6b656e206f776e6560008201527f72206e6f7220617070726f766564000000000000000000000000000000000000602082015250565b613890816130ff565b811461389b57600080fd5b50565b6138a781613111565b81146138b257600080fd5b50565b6138be8161311d565b81146138c957600080fd5b50565b6138d581613169565b81146138e057600080fd5b5056fe416e204e465420772f20494420257320686173206265656e206d696e74656420746f2025734142434445464748494a4b4c4d4e4f505152535455565758595a6162636465666768696a6b6c6d6e6f707172737475767778797a303132333435363738392b2fa26469706673582212203999866706aabf6d471f2dbe6a44d217a2c3731e682be26e002176a01282eb8664736f6c634300080400333c73766720786d6c6e733d27687474703a2f2f7777772e77332e6f72672f323030302f73766727207072657365727665417370656374526174696f3d27784d696e594d696e206d656574272076696577426f783d273020302033353020333530273e3c7374796c653e2e62617365207b2066696c6c3a2077686974653b20666f6e742d66616d696c793a2073657269663b20666f6e742d73697a653a20323470783b207d3c2f7374796c653e3c726563742077696474683d273130302527206865696768743d2731303025272066696c6c3d27272f3e3c7465787420783d273530252720793d273530252720636c6173733d27626173652720646f6d696e616e742d626173656c696e653d276d6964646c652720746578742d616e63686f723d276d6964646c65273e",
  "linkReferences": {},
  "deployedLinkReferences": {}
}