{
  "_format": "hh-sol-artifact-1",
  "contractName": "WavePortal",
  "sourceName": "contracts/WavePortal.sol",
  "abi": [
    {
      "inputs": [],
      "stateMutability": "payable",
      "type": "constructor"
    },
    {
      "anonymous": false,
      "inputs": [
        {
          "indexed": true,
          "internalType": "address",
          "name": "from",
          "type": "address"
        },
        {
          "indexed": false,
          "internalType": "uint256",
          "name": "timestamp",
          "type": "uint256"
        },
        {
          "indexed": false,
          "internalType": "string",
          "name": "message",
          "type": "string"
        }
      ],
      "name": "NewWave",
      "type": "event"
    },
    {
      "inputs": [],
      "name": "counting",
      "outputs": [],
      "stateMutability": "nonpayable",
      "type": "function"
    },
    {
      "inputs": [],
      "name": "getAllWaves",
      "outputs": [
        {
          "components": [
            {
              "internalType": "address",
              "name": "waver",
              "type": "address"
            },
            {
              "internalType": "string",
              "name": "message",
              "type": "string"
            },
            {
              "internalType": "uint256",
              "name": "timestamp",
              "type": "uint256"
            }
          ],
          "internalType": "struct WavePortal.Wave[]",
          "name": "",
          "type": "tuple[]"
        }
      ],
      "stateMutability": "view",
      "type": "function"
    },
    {
      "inputs": [],
      "name": "getNoOfWaves",
      "outputs": [
        {
          "internalType": "uint256",
          "name": "",
          "type": "uint256"
        }
      ],
      "stateMutability": "view",
      "type": "function"
    },
    {
      "inputs": [],
      "name": "getTotalWaves",
      "outputs": [
        {
          "internalType": "uint256",
          "name": "",
          "type": "uint256"
        }
      ],
      "stateMutability": "view",
      "type": "function"
    },
    {
      "inputs": [
        {
          "internalType": "string",
          "name": "_message",
          "type": "string"
        }
      ],
      "name": "wave",
      "outputs": [],
      "stateMutability": "nonpayable",
      "type": "function"
    }
  ],
  "bytecode": "0x60806040526000600255620000546040518060400160405280601981526020017f57652068617665206265656e20636f6e737472756374656421000000000000008152506200005a60201b620005cf1760201c565b620001ee565b620000fa8160405160240162000071919062000167565b6040516020818303038152906040527f41304fac000000000000000000000000000000000000000000000000000000007bffffffffffffffffffffffffffffffffffffffffffffffffffffffff19166020820180517bffffffffffffffffffffffffffffffffffffffffffffffffffffffff8381831617835250505050620000fd60201b60201c565b50565b60008151905060006a636f6e736f6c652e6c6f679050602083016000808483855afa5050505050565b600062000133826200018b565b6200013f818562000196565b935062000151818560208601620001a7565b6200015c81620001dd565b840191505092915050565b6000602082019050818103600083015262000183818462000126565b905092915050565b600081519050919050565b600082825260208201905092915050565b60005b83811015620001c7578082015181840152602081019050620001aa565b83811115620001d7576000848401525b50505050565b6000601f19601f8301169050919050565b61109980620001fe6000396000f3fe608060405234801561001057600080fd5b50600436106100575760003560e01c8063449d46c01461005c5780638554b847146100785780639a2cdc0814610082578063b9fb578d146100a0578063bd43a908146100be575b600080fd5b61007660048036038101906100719190610973565b6100dc565b005b61008061034f565b005b61008a6103a7565b6040516100979190610cdb565b60405180910390f35b6100a86103f2565b6040516100b59190610cdb565b60405180910390f35b6100c661047e565b6040516100d39190610bb9565b60405180910390f35b60016000808282546100ee9190610ded565b925050819055506101346040518060400160405280600d81526020017f257320686173207761766564210000000000000000000000000000000000000081525033610668565b600360405180606001604052803373ffffffffffffffffffffffffffffffffffffffff16815260200183815260200142815250908060018154018082558091505060019003906000526020600020906003020160009091909190915060008201518160000160006101000a81548173ffffffffffffffffffffffffffffffffffffffff021916908373ffffffffffffffffffffffffffffffffffffffff16021790555060208201518160010190805190602001906101f3929190610868565b506040820151816002015550503373ffffffffffffffffffffffffffffffffffffffff167f5f7e16dc676677766a70e9c5628aa6c54ddb8b6e5188e2ae1e1f17f1ffbea7164283604051610248929190610cf6565b60405180910390a26000655af3107a400090504781111561029e576040517f08c379a000000000000000000000000000000000000000000000000000000000815260040161029590610c9b565b60405180910390fd5b60003373ffffffffffffffffffffffffffffffffffffffff16826040516102c490610ba4565b60006040518083038185875af1925050503d8060008114610301576040519150601f19603f3d011682016040523d82523d6000602084013e610306565b606091505b505090508061034a576040517f08c379a000000000000000000000000000000000000000000000000000000000815260040161034190610cbb565b60405180910390fd5b505050565b60018060003373ffffffffffffffffffffffffffffffffffffffff1673ffffffffffffffffffffffffffffffffffffffff168152602001908152602001600020600082825461039e9190610ded565b92505081905550565b60006103ea6040518060400160405280601781526020017f5765206861766520256420746f74616c20776176657321000000000000000000815250600054610704565b600054905090565b600080600160003373ffffffffffffffffffffffffffffffffffffffff1673ffffffffffffffffffffffffffffffffffffffff1681526020019081526020016000205490506104776040518060400160405280601c81526020017f25732068617320776176656420617420796f752025642074696d65730000000081525033836107a0565b8091505090565b60606003805480602002602001604051908101604052809291908181526020016000905b828210156105c657838290600052602060002090600302016040518060600160405290816000820160009054906101000a900473ffffffffffffffffffffffffffffffffffffffff1673ffffffffffffffffffffffffffffffffffffffff1673ffffffffffffffffffffffffffffffffffffffff16815260200160018201805461052b90610ec1565b80601f016020809104026020016040519081016040528092919081815260200182805461055790610ec1565b80156105a45780601f10610579576101008083540402835291602001916105a4565b820191906000526020600020905b81548152906001019060200180831161058757829003601f168201915b50505050508152602001600282015481525050815260200190600101906104a2565b50505050905090565b610665816040516024016105e39190610bdb565b6040516020818303038152906040527f41304fac000000000000000000000000000000000000000000000000000000007bffffffffffffffffffffffffffffffffffffffffffffffffffffffff19166020820180517bffffffffffffffffffffffffffffffffffffffffffffffffffffffff838183161783525050505061083f565b50565b610700828260405160240161067e929190610bfd565b6040516020818303038152906040527f319af333000000000000000000000000000000000000000000000000000000007bffffffffffffffffffffffffffffffffffffffffffffffffffffffff19166020820180517bffffffffffffffffffffffffffffffffffffffffffffffffffffffff838183161783525050505061083f565b5050565b61079c828260405160240161071a929190610c6b565b6040516020818303038152906040527f9710a9d0000000000000000000000000000000000000000000000000000000007bffffffffffffffffffffffffffffffffffffffffffffffffffffffff19166020820180517bffffffffffffffffffffffffffffffffffffffffffffffffffffffff838183161783525050505061083f565b5050565b61083a8383836040516024016107b893929190610c2d565b6040516020818303038152906040527f07c81217000000000000000000000000000000000000000000000000000000007bffffffffffffffffffffffffffffffffffffffffffffffffffffffff19166020820180517bffffffffffffffffffffffffffffffffffffffffffffffffffffffff838183161783525050505061083f565b505050565b60008151905060006a636f6e736f6c652e6c6f679050602083016000808483855afa5050505050565b82805461087490610ec1565b90600052602060002090601f01602090048101928261089657600085556108dd565b82601f106108af57805160ff19168380011785556108dd565b828001600101855582156108dd579182015b828111156108dc5782518255916020019190600101906108c1565b5b5090506108ea91906108ee565b5090565b5b808211156109075760008160009055506001016108ef565b5090565b600061091e61091984610d4b565b610d26565b90508281526020810184848401111561093657600080fd5b610941848285610e7f565b509392505050565b600082601f83011261095a57600080fd5b813561096a84826020860161090b565b91505092915050565b60006020828403121561098557600080fd5b600082013567ffffffffffffffff81111561099f57600080fd5b6109ab84828501610949565b91505092915050565b60006109c08383610b36565b905092915050565b6109d181610e43565b82525050565b6109e081610e43565b82525050565b60006109f182610d8c565b6109fb8185610daf565b935083602082028501610a0d85610d7c565b8060005b85811015610a495784840389528151610a2a85826109b4565b9450610a3583610da2565b925060208a01995050600181019050610a11565b50829750879550505050505092915050565b6000610a6682610d97565b610a708185610dcb565b9350610a80818560208601610e8e565b610a8981610fb1565b840191505092915050565b6000610a9f82610d97565b610aa98185610ddc565b9350610ab9818560208601610e8e565b610ac281610fb1565b840191505092915050565b6000610ada603483610ddc565b9150610ae582610fc2565b604082019050919050565b6000610afd602783610ddc565b9150610b0882611011565b604082019050919050565b6000610b20600083610dc0565b9150610b2b82611060565b600082019050919050565b6000606083016000830151610b4e60008601826109c8565b5060208301518482036020860152610b668282610a5b565b9150506040830151610b7b6040860182610b86565b508091505092915050565b610b8f81610e75565b82525050565b610b9e81610e75565b82525050565b6000610baf82610b13565b9150819050919050565b60006020820190508181036000830152610bd381846109e6565b905092915050565b60006020820190508181036000830152610bf58184610a94565b905092915050565b60006040820190508181036000830152610c178185610a94565b9050610c2660208301846109d7565b9392505050565b60006060820190508181036000830152610c478186610a94565b9050610c5660208301856109d7565b610c636040830184610b95565b949350505050565b60006040820190508181036000830152610c858185610a94565b9050610c946020830184610b95565b9392505050565b60006020820190508181036000830152610cb481610acd565b9050919050565b60006020820190508181036000830152610cd481610af0565b9050919050565b6000602082019050610cf06000830184610b95565b92915050565b6000604082019050610d0b6000830185610b95565b8181036020830152610d1d8184610a94565b90509392505050565b6000610d30610d41565b9050610d3c8282610ef3565b919050565b6000604051905090565b600067ffffffffffffffff821115610d6657610d65610f82565b5b610d6f82610fb1565b9050602081019050919050565b6000819050602082019050919050565b600081519050919050565b600081519050919050565b6000602082019050919050565b600082825260208201905092915050565b600081905092915050565b600082825260208201905092915050565b600082825260208201905092915050565b6000610df882610e75565b9150610e0383610e75565b9250827fffffffffffffffffffffffffffffffffffffffffffffffffffffffffffffffff03821115610e3857610e37610f24565b5b828201905092915050565b6000610e4e82610e55565b9050919050565b600073ffffffffffffffffffffffffffffffffffffffff82169050919050565b6000819050919050565b82818337600083830152505050565b60005b83811015610eac578082015181840152602081019050610e91565b83811115610ebb576000848401525b50505050565b60006002820490506001821680610ed957607f821691505b60208210811415610eed57610eec610f53565b5b50919050565b610efc82610fb1565b810181811067ffffffffffffffff82111715610f1b57610f1a610f82565b5b80604052505050565b7f4e487b7100000000000000000000000000000000000000000000000000000000600052601160045260246000fd5b7f4e487b7100000000000000000000000000000000000000000000000000000000600052602260045260246000fd5b7f4e487b7100000000000000000000000000000000000000000000000000000000600052604160045260246000fd5b6000601f19601f8301169050919050565b7f547279696e6720746f207769746864726177206d6f7265206d6f6e657920746860008201527f616e2074686520636f6e7472616374206861732e000000000000000000000000602082015250565b7f4661696c656420746f207769746864726177206d6f6e65792066726f6d20636f60008201527f6e74726163742e00000000000000000000000000000000000000000000000000602082015250565b5056fea264697066735822122036fecb192c1eb06912998bfb0a0724992a4dae00bd42c7611319e18d1b66c22564736f6c63430008040033",
  "linkReferences": {},
  "deployedLinkReferences": {}
}